:020000040800F2
:10000000200D00202D0200087D3B00080D35000862
:100010005D3A000875140008E14300080000000084
:10002000000000000000000000000000FD3B000890
:10003000BD15000800000000DD3B0008F53C00088D
:10004000470200084702000847020008470200086C
:10005000470200084702000847020008470200085C
:10006000470200084702000847020008470200084C
:10007000470200084702000847020008470200083C
:10008000551500084702000847020008470200080B
:10009000470200084702000847020008470200081C
:1000A000470200084702000847020008470200080C
:1000B000593D0008470200084702000847020008AF
:1000C00047020008470200084702000847020008EC
:1000D00047020008C9430008D5430008470200084A
:1000E00047020008470200084702000847020008CC
:1000F00047020008470200084702000847020008BC
:1001000047020008470200084702000847020008AB
:100110004702000847020008653D00084702000842
:10012000470200084702000847020008470200088B
:1001300000F002F800F06AF80AA090E8000C82448F
:100140008344AAF10107DA4501D100F05FF8AFF26C
:10015000090EBAE80F0013F0010F18BFFB1A43F0A5
:10016000010318476C5800008C5800000A444FF0F7
:10017000000C10F8013B13F0070408BF10F8014B06
:100180001D1108BF10F8015B641E05D010F8016B4B
:10019000641E01F8016BF9D113F0080F1EBF10F8AF
:1001A000014BAD1C0C1B09D16D1E58BF01F801CBD2
:1001B000FAD505E014F8016B01F8016B6D1EF9D555
:1001C0009142D6D37047000000230024002500266A
:1001D000103A28BF78C1FBD8520728BF30C148BFAA
:1001E0000B607047662905F09283642900F05E80F9
:1001F000002070471FB500F0BFFB04000020002165
:1002000004F04AFDE0601FBD10B510BD00F0CCFC4D
:100210001146FFF7EFFF04F0D1FB00F0EAFC03B456
:10022000FFF7F2FF03BC04F0BCFB00000948804765
:1002300009480047FEE7FEE7FEE7FEE7FEE7FEE7C8
:10024000FEE7FEE7FEE7FEE704480549054A064BE0
:1002500070470000573D00083101000820070020CA
:10026000200D002020090020200900207047B2F155
:1002700020030AD5C2F1200320FA02F001FA03F3A9
:1002800021FA02F140EA0300704721FA03F04FF02F
:10029000000170470FB4044910B503AA029800F09A
:1002A00059FB10BC5DF814FB000000202DE9F04163
:1002B0000646002410687529314616A510D0AFF304
:1002C0000080002802DA404213A507E031688A075F
:1002D00001D512A502E0490704D511A5012401E0CA
:1002E000AFF3008000210A2206F1240709E0B0FBE9
:1002F000F2FCB0FBF2F302FB1C00303078541846DD
:10030000491C0028F3D123462A463046BDE8F04177
:1003100000F0BAB8000000002D0000002B00000023
:10032000200000002DE9F0474FF0000A89460446FE
:10033000C0F820A02046E1688847002876D025280C
:1003400006D0D4E901219047206A401C2062F1E7E1
:10035000E168204600258847C4F81CA0064600270F
:10036000C4F818A02A2E09D0304604F013FB38B385
:1003700004EB8708303EC8F8186019E059F8041BF0
:10038000204604EB87029161E1688847012F064609
:1003900018D1E069002820DA25F020051DE0D8F802
:1003A000180000EB800006EB40003038C8F8180059
:1003B0002046E1688847064604F0ECFA0028EED1B2
:1003C000012F0AD02E2E08D12046E16888477F1CD5
:1003D0000646022F45F02005C4DBA069002803DA99
:1003E000404245F00105A061E80701D025F0100565
:1003F000B6B1A6F14100192802D8203645F40065AF
:100400004A463146204625604D46FFF7EBFE58B17F
:10041000012806D0ED1D25F0070000F1080989E745
:1004200004E005F1040985E730468AE7206ABDE863
:10043000F0874FF0000200B51346944696462039E7
:1004400022BFA0E80C50A0E80C50B1F12001BFF48D
:10045000F7AF090728BFA0E80C5048BF0CC05DF8F3
:1004600004EB890028BF40F8042B08BF704748BF41
:1004700020F8022B11F0804F18BF00F8012B7047B5
:1004800070477047704770472DE9F0470D46994611
:100490009246044600F124080168880604D5E06904
:1004A00021F01001216000E00120A84201DD471B7E
:1004B00000E00027A1697A1902EB0900081AA0617F
:1004C0002078C00602D42046AFF30080002608E062
:1004D000D4E901211AF806009047206A401C761CD6
:1004E00020624E45F4DB2078C0060AD52046AFF3E3
:1004F000008006E0D4E9012130209047206A401CAA
:100500002062381EA7F10107F4DC07E0D4E90121DD
:1005100018F805009047206A401C2062281EA5F1AB
:100520000105F3DC2046AFF300802078000602D5F9
:100530000220BDE8F0870120FBE770472DE9FF4F5F
:100540000C461E464FF0FF378BB0D2E90001DDF8B4
:1005500060800A908A46C1F30A5505B93D460021DC
:1005600008464FF00000BAF1000F00F4400005DA31
:1005700000EB80004FF4400101EA50004FEA90592F
:10058000B9F1010F00DDB9460A9850EA4A000ED0D1
:1005900044F61050A5F2FF3545432F14B8F1000F73
:1005A0001ED07542291E1EDDC9F100021CE0B8F103
:1005B000010F4FF0000001D0302103E0F24305E0CD
:1005C0002154401CB042FBDB304600220021215464
:1005D0000B99C1F80880C1E900200FB0BDE8F08F89
:1005E000BD1B6D1CDEE74A4600DA694206A800F032
:1005F00065FA06AB93E8070003AB83E807005046B3
:100600000A9900F03FFB8DE80700A0F500501F3865
:1006100000900398002D09DD42F21F014A4608446C
:1006200003A90390684600F09EFD08E0A0F5005085
:100630004A461F3803A90390684600F0A8FD8DE8DC
:1006400007000004000C03D04FF0FF30410800E029
:100650001046B8F1000F03D00022009215461EE0AC
:10066000751E05D400F08CF9303262556D1EF9D537
:10067000B3460122084302D000227F1C04E0207808
:10068000302801D100227F1E002A099786D01DE064
:10069000112D07DA00F074F9303262556D1C50EA02
:1006A0000102F5D1084302D00098C8B10EE0002144
:1006B000681E05E0235C625C63542254401E491CA2
:1006C0008142F7DBAB46A81B401E0990002004F8CE
:1006D0000B000B98099AC0F80880C0E9002B7CE752
:1006E00011264FF0000859E72DE9F04F88460446DF
:1006F000D21D22F0070191B0D1E90001CDE90A0134
:1007000004F024F902460B98C00F01D02D2007E019
:100710002068810701D52B2002E0202101EAC000DA
:10072000032A099001D0072A05DB034641462046EB
:1007300000F084F90BE12078800601D5E06900E043
:100740000620B8F1650F814606D0B8F1660F18D0C3
:10075000B8F1670F70D131E00020B9F1110F0090AE
:1007600001DB112301E009F101030AAA01A90CA888
:10077000FFF7E4FEDDE90C70002609F10105834670
:1007800047E001204B4600904FF000470AAA01A91C
:100790000CA8FFF7D3FEDDE90DB00C995D460026ED
:1007A00010B909F101000D18B9EB050003D4C0F12F
:1007B000FF3609F10105A5EB09002BE0B9F1010FA6
:1007C00001DA4FF001090020B9F1110F00904846FD
:1007D00001DD112300E003460AAA01A90CA8FFF7D6
:1007E000ADFEDDE90C704D460026834620780007FB
:1007F0000AD4AB4500DA5D4601A8012D04DD41199C
:1008000011F8011C302907D04F4502DA17F1040F07
:1008100004DA012082460FE06D1EEEE7002F02DCB5
:10082000ED1B3E4403E0781CA84200DD7D1CB81B94
:1008300000F1010A4FF000472078000703D4AA45D1
:1008400001DB4FF0FF3A0021B7F1004F0DF14308F3
:100850008DF8431024D002202B23002F01DA7F4291
:100860002D230A21021EA0F1010000DC5FB197FBDD
:10087000F1FC97FBF1F201FB1C7C17460CF1300CEC
:1008800008F801CDEEE7A8F1010003702188090501
:1008900001D5452100E06521A0F1010800F8011C07
:1008A00009980FA9A1EB0807FF1D00B1012041190C
:1008B00001EBEA70A1693844081A401EA061207853
:1008C000C00602D42046AFF30080099828B1D4E9CD
:1008D00001219047206A401C20622078C00622D562
:1008E0002046AFF300801EE0002E04DBB34502DD9E
:1008F00001A8805D00E03020D4E901219047206A02
:10090000401C2062761CAAF101005FEA000A0AD1AD
:1009100000F032F8C0680168405CD4E901219047DA
:10092000206A401C2062281EA5F10105DCDC07E0DE
:10093000D4E9012118F8010B9047206A401C20627D
:10094000381EA7F10107F3DC2046AFF30080032037
:1009500011B043E6074B70B50D467B4400F05BF8E1
:100960000446284600F018F910B14FF0FF3070BD72
:10097000204670BD4740000000487047DC0600205C
:1009800030B5B0F10A024FEA900E71F100034EEA61
:10099000817EB0EB0E0061EB91014FEA101E4EEA32
:1009A000017E10EB0E0041EB11114FEA102E4EEAC2
:1009B000016E10EB0E0041EB11214FEA104E4EEA92
:1009C000014E10EB0E0041EB1141401841F10001C6
:1009D0004FEAD00040EA41704FEAD10110EB8005A8
:1009E0004FEA810444EA907444EB01046D1944EB2E
:1009F0000404521BA3414FF0000348BF0A3200D544
:100A000030BD401C41F1000130BD000001694A1CAD
:100A100002610878704700B58FB0CDE9013100213F
:100A2000059105497944CDE9031011466846FFF761
:100A300079FC0FB000BD0000E5FFFFFF2DE9F0419C
:100A40001F46044603260168072A01F4006004DB00
:100A500008B116A505E016A503E008B115A500E04C
:100A600015A521F010002060A069C01EA0610FB183
:100A7000401EA0612046AFF300804FB1D4E90121B0
:100A800038469047206A401C2062C01C206206E065
:100A9000206AFAE7D4E9012115F8010B9047761E88
:100AA000F8D22046AFF30080BDE8F0814E414E0001
:100AB0006E616E00494E4600696E66002DE9F04792
:100AC000814616468AB0334878440DC88DE80D003B
:100AD00030487844801C03AC0DC884E80D0041F612
:100AE0009B300844372190FBF1F290FBF1F5A5F122
:100AF000800501FB12041B3C02D56442012000E08A
:100B00000020DFF890A080460027FA44AAF1BE0A30
:100B10000DE0E00709D03246684607EB47010AEBD3
:100B2000810100F034FB8DE8070064107F1C002C6D
:100B3000EFD1184F7F44AC3F18E0E80714D007EB23
:100B400004100DF1180A90E80E008AE80E00C06843
:100B5000F04201D198190890324606A903A800F086
:100B600016FB03AB83E807006D10641C002DE4D175
:100B700032466946B8F1000F03A802D000F0F3FA3C
:100B800001E000F004FBC9E90001C9F808200AB03F
:100B9000BDE8F087EC4E0000007B00F0800070475D
:100BA00000487047BC0600207546FFF7F9FFAE46C7
:100BB00005006946534620F00700854618B020B569
:100BC000FFF742FBBDE820404FF000064FF0000762
:100BD0004FF000084FF0000B21F00701AC46ACE8E5
:100BE000C009ACE8C009ACE8C009ACE8C0098D4652
:100BF000704710B50446AFF300802046BDE81040B2
:100C0000FFF70DBB4FF0013C50F8042B51F8043BAB
:100C10009A4221D1A2EB0C03934313EACC1317D1D0
:100C200050F8042B51F8043B9A4215D1A2EB0C0367
:100C3000934313EACC130BD150F8042B51F8043B27
:100C40009A4209D1A2EB0C03934313EACC13DBD0F5
:100C50004FF00000704700BFD01A01BAB1FA81F11D
:100C600001F0180122FA01F0CB40C1F12001DBB202
:100C7000C0B2C01A2CFA01F3D11A914311EAC31180
:100C8000E6D170475FEA400C08BF91F0000F4FEAD1
:100C90008C234FEAC12243EA51514FEA1C5018BF3E
:100CA00000F5F0404FEA300018BF41F000415FEA24
:100CB0006C5C00F02980BCF1FF3F08BF40F0804031
:100CC0007047130C06BF12044FF0100C4FF0000CCD
:100CD000130E04BF12020CF1080C130F04BF120113
:100CE0000CF1040C930F04BF92000CF1020CD30F13
:100CF00004BF52000CF1010C11464FF00002A0F1AC
:100D00001F00A0EB0C00704711F0004F08BF7047A8
:100D100031F000413FF4D5AF0B0C06BF09044FF092
:100D2000100C4FF0000C0B0E04BF09020CF1080C64
:100D30000B0F04BF09010CF1040C8B0F04BF8900D9
:100D40000CF1020CCB0F04BF49000CF1010CCCF1EB
:100D50002003A0EB0C0022FA03F302FA0CF241EAA2
:100D6000030100F10100704720F07F4C80EA03008E
:100D700023F07F47ACEB070303F57C5300F0004002
:100D800003F1FF032DE980494FEA154B09B44FEAFF
:100D9000144325EA0B4E24EA03480FF2042606EB1F
:100DA000132749083E785FEA320203FB0667C7F55E
:100DB000000707FB06F64FEA54374FEAD64606F11E
:100DC000020607FB066CCCF1005C4FEA1C472CEADC
:100DD000074C07FB06F40CFB06F504EB15464FEA3F
:100DE000961634BF00204FF000404FEAD13706FB83
:100DF00007FC4FEA1C4C0CFB0BF7D21B03FB0CF758
:100E000061EB07010CFB0EF7B0EB074072EB1742EA
:100E10000CFB08F734BFA2EB0742B2EB074261EBD1
:100E200017414FEA0C444FEA910706FB07FC4FEAD3
:100E30001C4C0CFB0BF7B0EBC74072EB573203FBBB
:100E40000CF734BFA2EBC742B2EBC74261EB57319C
:100E50000CFB0EF7B0EBC70072EB57720CFB08F7F8
:100E600034BFA2EBC702B2EBC70261EB5771039F1D
:100E70004FEA816141EA921104EBCC044FEAD13789
:100E80004FEA826206FB07FC42EA90124FEA80605A
:100E90004FEA1C4C0CFB0BF7D21B03FB0CF761EB6E
:100EA00007010CFB0EF7B0EB074072EB17420CFB8F
:100EB00008F734BFA2EB0742B2EB074261EB1741E0
:100EC0004FEA8C554FEA910704EB9C2406FB07FC84
:100ED0004FEA1C4C0CFB0BF7B0EBC74072EB5732E0
:100EE00003FB0CF734BFA2EBC742B2EBC74261EB86
:100EF00057310CFB0EF7B0EBC70072EB57720CFBCF
:100F000008F734BFA2EBC702B2EBC70261EB57711F
:100F100015EB4C254FEA816141EA92114FEA82625A
:100F20004FEAD13742EA901206FB07FC44F1000475
:100F30004FEA80604FEA1C4C0CFB0BF7D21B03FB03
:100F40000CF761EB07010CFB0EF7B0EB074072EBFF
:100F500017420CFB08F734BFA2EB0742B2EB074283
:100F600061EB174115EB1C154FEA813141EA9241C3
:100F70004FEA823242EA90424FEA80304FEA0C76E2
:100F800044F1000448EA03434EEA0B484FF0000ED8
:100F9000B2EB080C71EB030724BF624639464EEBF7
:100FA0000E0E4FF0000B0018524149414BEB0B0B5A
:100FB000B2EB080C71EB03077BF1000B24BF624618
:100FC00039464EEB0E0E4FF0000B001852414941CE
:100FD0004BEB0B0BB2EB080C71EB03077BF1000B37
:100FE00024BF624639464EEB0E0E51EA020718BF87
:100FF00046F0010616EB0E7655F1000254F10001A1
:1010000003D5BDE88901BDE80088BDE88901BDE8D8
:101010000048B619524141EB0101A3F101037047A9
:1010200080807F7E7D7C7B7A797877767675747325
:10103000727171706F6E6E6D6C6C6B6A6A696868E4
:10104000676666656464636362616160605F5F5E7A
:101050005E5D5D5C5C5B5B5A5A59595858575756F0
:101060005655555554545353525252515150505055
:101070004F4F4F4E4E4D4D4D4C4C4C4B4B4B4A4AA7
:101080004A494949484848474747474646464545EB
:101090004544444444434343434242424241414124
:1010A000002B26D4770021D01CB54FEA370703B4B4
:1010B0004FF010004FF010014FF000000FBCBDE8E2
:1010C00010400BF1010BBBF1010F08BF5FEA1707DE
:1010D00022BF12F1010211F101014FF0004143F171
:1010E000000300F0004043EA00007047F9D35708BE
:1010F000DAE746EA064613F1400F4FEA16461FDDCF
:1011000013F1200FDFBF16430A46002120335B4254
:10111000C8D0C3F1200746EA064602FA07F74FEAAD
:10112000164646EA0706C3F1200722FA03F201FA3F
:1011300007F721FA03F14FF0000342EA0702B1E793
:1011400046EA020646EA06464FEA164646EA01061F
:10115000BCBF46EA0646360C4FF000034FF00002D3
:101160004FF000019EE72DE9C048934630B491E866
:10117000380007C831EA400C48BF34EA430C03D5B5
:10118000FFF7F2FDFFF78CFFF0BCBDE800882DE90A
:10119000C048934630B491E8380007C810F0804F3B
:1011A00008BF13F0804F03D100F005F8FFF778FF78
:1011B000F0BCBDE8008820F07F4780EA030023F000
:1011C0007F4C07EB0C03A3F57C5300F00040A3F128
:1011D000FE0392F0000F00F0B38095F0000F00F0D6
:1011E00077802DE901494FEA11404FEA144621EA80
:1011F000004800FB06FC24EA064708FB06F607FB4E
:1012000008F800FB07F718EB06484CEB164C4FEAC2
:10121000124B18EB07484FEA15464CEB174022EAF1
:101220000B4E0BFB06FC25EA06470EFB06F607FBFA
:101230000EFE0BFB07F71EEB064E4CEB164C4FF069
:1012400000061EEB074E4CEB174B18EB0B0840F15A
:10125000000018EB0E0B58EB000840F100008F1A4D
:101260004FF000013CBFC943661B14BFB5EB040C33
:1012700000213CBFC943F61B4FEA17444EEA8E0ECD
:1012800027EA04454FEA1C4704FB07622CEA074C97
:1012900005FB07F70CFB05F604FB0CFC16EB0746F9
:1012A00042EB174216EB0C4642EB1C421BEB0606C8
:1012B00058EB0202414146EA9E0601D5BDE801898C
:1012C000B619524141EB0101A3F10103BDE80189C7
:1012D0004FEA14454FEA114724EA054621EA074C34
:1012E00005FB07F406FB07F70CFB06F105FB0CFCFE
:1012F00011EB074144EB17444FEA124711EB0C4145
:1013000044EB1C4422EA074C05FB07F206FB07F7F7
:101310000CFB06F605FB0CFC16EB074642EB1742EE
:1013200016EB0C4642EB1C456A1854F1000148BF0D
:101330007047B619524141EB0101A3F10103704717
:1013400095F0000F37D04FEA11424FEA144721EAD7
:10135000024624EA074C02FB07F106FB07F70CFBE9
:1013600006F402FB0CFC14EB074441EB17414FEA77
:10137000154714EB0C4441EB1C4125EA074C02FBDA
:1013800007F506FB07F70CFB06F602FB0CFC16EB59
:10139000074645EB174516EB0C4645EB1C42121968
:1013A00051F1000148BF7047B619524141EB0101AC
:1013B000A3F1010370474FEA14454FEA114724EAAD
:1013C000054621EA074C05FB07F106FB07F70CFB76
:1013D00006F24FF0000605FB0CFC12EB074241EB56
:1013E000174112EB0C4251EB1C4148BF7047921859
:1013F00041EB0101A3F10103704700002DE9F04129
:1014000006004FF000051ED010A0FEF743FF05EBCD
:10141000450000EBC500002406EB80070FA057F83D
:101420002410FEF737FF641CE4B20B2CF6D30AA09D
:10143000FEF730FF6D1CEDB2042DE8D3BDE8F0419E
:1014400007A0FEF727BFBDE8F08100004170704C97
:101450006F67446174613A0D0A00000025642C0036
:101460004170704C6F67446174612046696E6973A6
:10147000680D0A00FEE7000070B5032815D80A6859
:10148000526A00EBC0030948A2F2FF7200EBC304EA
:10149000626050F833502A4440F83320096840F223
:1014A000FF70486200F038FDE06070BD78040020F5
:1014B00010B50A88C2F30A02A2F5806202804A7857
:1014C0008B78D20842EA4312C2F30A02A2F5806284
:1014D00042808A78CB78920942EA83020B7942EA09
:1014E0008322C2F30A02A2F5806282800A794B79D4
:1014F000520842EAC312C2F30A02A2F58062C28015
:101500004A79920902724A79C2F301124272CA8878
:1015100042810A8982814A89C2810A7B02744A7B9C
:101520004274C989418200F0F7FC044908604A68A6
:10153000821AB2F5FA7F00D9486010BD1800002069
:1015400002680A6042684A6082688A60C06AC8624B
:1015500070470000014800F07BB90000140400202F
:1015600030B590F840500124AC40C56B6C60046805
:1015700063604368102B036803D099600068C26001
:1015800030BD9A600068C16030BD0000122202497F
:10159000024801F0F3BE000010060020CC0300203A
:1015A00010B500F0B9FC04494861BDE8104050395D
:1015B0000148FFF77DBF000060060020704772B64B
:1015C000FEE7000006490020C8610648016941F0B5
:1015D00004010161016941F04001016170470000AF
:1015E0005804002000200240064A0021D16106492B
:1015F0000A6942F002020A614861086940F040004D
:10160000086170475804002000200240044B00226B
:10161000DA61044A136943F00103136101807047E2
:10162000580400200020024014480022C168CB0664
:10163000134904D5CA6942F00202CA611022C36884
:101640005B0705D5CB6943F00103CB6142F004028F
:10165000C369DB0707D0CB6943F00403CB61C169E1
:1016600021F00101C161A2F58071013901D0C26090
:101670007047C16921F00101C1617047002002403B
:101680005804002070B5054600F046FC0646114C93
:1016900009E0681C07D025B100F03EFC801BA84281
:1016A00001D9032070BDE068C007F2D1E068800670
:1016B00001D52020E060E068C00605D4E069C007DD
:1016C00002D1E068400703D5FFF7AEFF012070BDEF
:1016D000002070BD0020024010B590F821100022BB
:1016E000022905D00421816380F82020012010BD4B
:1016F00001680B6823F00E030B6001680B6823F090
:1017000001030B6090F84030C46B012101FA03F330
:10171000636080F8211080F82020104610BD000082
:101720002DE9F05F90F821100024022903D0042154
:101730008163012485E001680A6822F00E020A60D4
:1017400001680A6822F001020A603F4E3E4FB2155E
:10175000DFF8F4C0DFF8F090DFF8ECA0DFF8E8B0D5
:10176000DFF8E4E00168783F13011502ACF1640C86
:10177000A9F15009AAF13C0AABF1280BAEF1140E05
:101780004FF48018B14227D9B9420ED0614512D02A
:1017900049451DD0514518D0594518D0714501D142
:1017A000424615E0294EB14201D1012210E0274EF8
:1017B0001436B14201D110220AE0244E2836B1423B
:1017C00006D0224A3C32914201D11A4600E02A4614
:1017D0001E49091F0A602BE0B94213D0614517D09A
:1017E000494522D051451DD059451DD0714501D1E3
:1017F00042461AE0B14202D14FF0807215E0134E1A
:10180000B14201D1012210E0104E1436B14201D193
:1018100010220AE00D4E2836B14206D00B4A3C3267
:10182000914201D11A4600E02A46074980394A60B0
:10183000012180F82110002180F82010416B01B1B6
:1018400088472046BDE8F09F80000240080402401F
:101850002DE9F05FC16B0A6801680B68046C4FF0FA
:10186000040808FA04F8844D844E854FDFF814C24A
:10187000DFF81492DFF814A2DFF814B2DFF814E2F4
:1018800018EA020F65D05FEA437862D50A689206CB
:1018900003D40A6822F004020A60DFF8F0814FF4F2
:1018A0008062016808F1140813011402414524D92B
:1018B000A9420DD0B1420FD0B9421AD0614515D01E
:1018C000494515D0514501D1120312E0594501D1C6
:1018D00004220EE0714501D140220AE06D4D14351D
:1018E000A94206D06B4A2832914201D11A4600E043
:1018F00022466749091F0A6029E0A94213D0B14274
:1019000015D0B94220D061451BD049451BD0514567
:1019100002D14FF4800217E0414502D14FF08062BE
:1019200012E0594501D104220EE0714501D1402257
:101930000AE0584D1435A94206D0564A2832914241
:1019400001D11A4600E022464B4908394A60C16A73
:1019500071E04FF0020808FA04F818EA020F70D09C
:101960005FEA83786DD50A68920606D40A6822F089
:101970000A020A60012180F82110DFF810814FF47B
:101980000072016808F1140813011402414524D9BA
:10199000A9420DD0B1420FD0B9421AD0614515D03D
:1019A000494515D0514501D1120312E0594501D1E5
:1019B00002220EE0714501D120220AE0354D143596
:1019C000A94206D0334A2832914201D11A4600E09A
:1019D00022462F49091F0A6029E0A94213D0B142CB
:1019E00015D0B94220D061451BD049451BD0514587
:1019F00002D14FF4001217E0414502D14FF00072BE
:101A000012E0594501D102220EE0714501D1202298
:101A10000AE0204D1435A94206D01E4A28329142D0
:101A200001D11A4600E02246134908394A600021D4
:101A300080F82010816A00291CD0BDE8F05F0847BB
:101A4000FFE70825A540154214D01A0712D50A68E9
:101A500022F00E020A6090F84020C36B012101FAC7
:101A600002F25A60816380F82110002180F8201072
:101A7000016BE0E7BDE8F09F080002401C00024057
:101A80003000024044000240580002406C00024016
:101A9000080402401C04024030B560B11A4B0268D1
:101AA00014219A4209D2194B1344B3FBF1F1890076
:101AB000016417490AE0012030BD134B5B42134417
:101AC000B3FBF1F1890001640F490839C1630221B8
:101AD00080F82110136843F6F0718B43F0E901148C
:101AE0002143D0E902452C43214304692143446941
:101AF000214384692143194311600021416301227C
:101B000042770177084630BD08040240F8FFFDBF68
:101B10000000024070B5044690F82000002501281E
:101B20000CD0012084F8200094F821600020012EC0
:101B300006D084F820000225284670BD022070BD22
:101B4000022684F82160A0632068066826F001065A
:101B500006602046FFF704FDE06A0028206801685F
:101B600002D041F00E0106E021F00401016020687E
:101B7000016841F00A0101602068016841F001013B
:101B80000160D9E770B5044600F0C6F90546601C4F
:101B900002D004480078044400F0BEF9401BA04283
:101BA000FAD370BD040000202DE9F0470546264811
:101BB0000F460126017E01290FD0012181460176C1
:101BC0002868DFF888804CF25034022808D0A246FA
:101BD0002046FFF757FDA8B131E00220BDE8F087AD
:101BE0002046FFF74FFD08BB0120FFF7EBFC204626
:101BF000FFF748FDD8F81010064621F00401C8F898
:101C000010101CE04FF0FF303860AC6811E0204647
:101C1000FFF7EAFC5046FFF735FDD8F81010060034
:101C200021F00201C8F8101001D03C6007E004F573
:101C30000064D5E9020100EBC120A042E7D80021F1
:101C400089F818103046C9E75804002000200240E7
:101C50000348016941F080010161002070470000E4
:101C6000002002402DE9F05F07461C48884600240A
:101C7000017E15461E46012909D0012181460176C3
:101C80004CF2503A5046FFF7FDFC18B122E002201A
:101C9000BDE8F09F012F02D0022F00D00427D346C9
:101CA000DFF83CA0220128463146FEF7E0FA81B277
:101CB00008EB4400FFF7AAFC5846FFF7E3FCDAF80C
:101CC000102022F00102CAF8102018B9641CE4B2F6
:101CD000BC42E7D3002289F81820D9E75804002035
:101CE00000200240064900200A69120607D5054A6D
:101CF0004A60054A4A600969090600D50120704713
:101D00000020024023016745AB89EFCD2DE9F84F54
:101D1000DFF8C8910024A9F1040B23460F2709F12D
:101D2000040AABF1040ED1E00125A54006EA050244
:101D3000AA4276D1DFF8A8C14E68A6EB0C0866452A
:101D40002BD00DDC032E34D005DC36B3012E19D098
:101D5000022E2FD11BE0112E16D0122E2AD119E0FF
:101D6000B8F5881F19D006DCB8F5803F15D0B8F556
:101D7000801F1FD111E0B8F5001F0ED0B8F5041F69
:101D800018D10AE0CB6815E0CB681B1D12E0CB68C8
:101D900008330FE0CB680C330CE08B682BB1012BC0
:101DA0004FF0080303D0456104E0042302E005611D
:101DB00000E00023FF2A01D8064601E000F10406F6
:101DC0004FEA840501D9A5F12005D6F8008007FA6D
:101DD00005FC28EA0C0803FA05F548EA0508C6F8E8
:101DE00000804D68ED0070D53E4DAE6946F00106AD
:101DF000AE61AD6924F0030605F0010500953A4D8A
:101E000006EB050CDCF80850A607360F07FA06F8B3
:101E100025EA0805DFF8D480404503D14FF00008DB
:101E200025E052E0DFF8C880404502D14FF00108BC
:101E30001DE0DFF8C080404502D14FF0020816E0F7
:101E4000DFF8B480404502D14FF003080FE0DFF81F
:101E5000AC80404502D14FF0040808E0DFF8A080D4
:101E6000404502D14FF0050801E04FF0060808FA9E
:101E700006F848EA0508CCF808804D68D9F80060F3
:101E8000ED024D4601D5164300E096432E604D68A5
:101E9000DAF80060AD02554601D5164300E09643DE
:101EA0002E604D68DBF80060AD035D4601D516433A
:101EB00000E096432E604D68DEF80060ED03754645
:101EC00001D5164300E096432E60641C0A6816464E
:101ED000E2407FF429AFBDE8F88F0000080401401C
:101EE00000001110001002400000014000080140F5
:101EF000000C014000100140001401400018014096
:101F0000001C01408068084000D0012070470AB1E1
:101F1000016170470904FBE70148806870470000D1
:101F200004000020024881680278114481607047F3
:101F300004000020074810B5016841F0100101605D
:101F4000032000F075F80F2000F006F800F024F8E8
:101F5000002010BD0020024070B50D4D04464FF426
:101F60007A712878B1FBF0F00A490968B1FBF0F00A
:101F700000F0DCFA48B9102C07D200222146501E8E
:101F800000F036F800206C6070BD012070BD0000CC
:101F900004000020100000200C4808B5816941F0C1
:101FA00001018161816901F001010091C16941F084
:101FB0008051C161C06900F08050009004484168C0
:101FC00021F0E06141F00071416008BD0010024065
:101FD00000000140002809DB00F01F0201219140B0
:101FE0004009800000F1E020C0F8001170470000B7
:101FF000F0B40E4B1B680C46C3F30223C3F1070574
:10200000042D00D90425191D072901D2002300E061
:10201000DB1E012606FA05F1491E214099409E402B
:10202000761E16403143F0BC02F0A4BC0CED00E07B
:10203000064900F0070208684FF6FF03184040EA1F
:102040000220034A10430860704700000CED00E0D6
:102050000000FA052DE9F0470F46050061D0434E18
:10206000306800F00700B84209D2306820F007005D
:1020700038433060306800F00700B84251D128681A
:102080003B4C810712D5400703D5606840F4E060FF
:1020900060602878000703D5606840F46050606095
:1020A0006068A96820F0F000084360602878C007E5
:1020B00028D06868012810D02168022810D089072C
:1020C00000292EDA616821F0030101436160FFF706
:1020D00023FF804641F288390DE021688903EFE74C
:1020E0008901EDE7FFF718FFA0EB0801494502D988
:1020F0000320BDE8F0876068696800F00C00B0EB71
:10210000810FEFD1306800F00700B8420BD930687A
:1021100020F0070038433060306800F00700B84214
:1021200001D00120E5E72878400705D56068E96817
:1021300020F4E060084360602878000706D56068F6
:10214000296920F4605040EAC100606000F038F86E
:102150006168084AC1F30311515CC8400649086030
:1021600006480068FFF7F8FE0020C2E700200240A2
:102170000010024024590008100000200800002030
:102180000448054900684968044AC1F30221515CCA
:10219000C840704710000020001002403459000869
:1021A0000448054900684968044AC1F3C221515CEA
:1021B000C840704710000020001002403459000849
:1021C0000E4A51680E4801F00C03042B11D0082B65
:1021D0000FD10C48C1F38343C903C05C0AD55168D1
:1021E000084AC1F34041921E515C054A5043B0FB7E
:1021F000F1F0704704494843704700000010024066
:1022000000127A001459000800093D002DE9F84F2A
:10221000040070D02078C04DC00749D06868C0F372
:102220008100012807D06868C0F38100022809D125
:102230006868C00306D52868800339D5606800281F
:10224000E7D035E06068B0F5803F0BD010B1B0F555
:10225000A02F11D0286820F480302860286820F44E
:10226000802002E0286840F480302860606890B1E7
:10227000FFF752FE06460AE0286840F480202860F6
:10228000F0E700BFFFF748FE801B642873D828687A
:102290008003F7D50CE0FFF73FFE064605E000BFE0
:1022A000FFF73AFE801B6428F0D828688003F7D433
:1022B00020789A4E80074FF001094FF0000839D579
:1022C000686810F00C0F07D06868C0F3810002281E
:1022D00009D16868C00306D42868800714D520692E
:1022E000012808D110E02069B0B1C6F80090FFF7CE
:1022F00013FE074605E00AE1FFF70EFEC01B0228A9
:10230000C4D828688007F7D52868616920F0F800EC
:1023100040EAC10028600DE0C6F80080FFF7FCFD30
:10232000074604E0FFF7F8FDC01B022823D8286801
:102330008007F7D4207800072CD57948A169D9B156
:10234000C0F80090FFF7E8FD074604E0FFF7E4FD62
:10235000C01B02280FD8686A8007F7D571484FF470
:10236000FA510068B0FBF1F0009000BF0098411EE8
:102370000091FAD20EE080E0C0F80080FFF7CCFDBB
:10238000074604E0FFF7C8FDC01B022875D8686A3D
:102390008007F7D42078400760D5E8690027C0009F
:1023A00008D4E86940F08050E861E869012700F04E
:1023B000805000905C480168C90513D401688346C9
:1023C00041F480710160FFF7A7FD824606E000BF7F
:1023D000FFF7A2FDA0EB0A0064284ED8DBF800004E
:1023E000C005F5D5E06801280AD008B1052813D04A
:1023F000286A20F001002862286A20F0040002E028
:10240000286A40F001002862E06841F2883B98B1F8
:10241000FFF782FD82460BE0286A40F00400286244
:10242000EEE700BFFFF778FDA0EB0A0159455AD847
:10243000286A8007F6D50CE0FFF76EFD824605E0BE
:10244000FFF76AFDA0EB0A0159454CD8286A8007BE
:10245000F6D41FB1E86920F08050E861E06988B3E4
:102460006968C1F38101022944D00228C6F860805E
:1024700004D0FFF751FD044638E034E0FFF74CFD8F
:10248000074604E0FFF748FDC01B02282BD8286848
:102490008001F7D4206AB0F5803F05D16868A16853
:1024A00020F4003008436860D4E9080108436968F3
:1024B00021F4741108436860C6F86090FFF72CFDA2
:1024C000044606E025E000BFFFF726FD001B0228BA
:1024D00009D828688001F7D51BE000BFFFF71CFD75
:1024E000001B022802D90320BDE8F88F286880016C
:1024F000F4D40EE00128F7D06868226A00F4803135
:10250000914204D1616A00F47010884201D0012028
:10251000EAE70020E8E70000001002400000424225
:1025200080044242100000200070004010B5401EA0
:10253000B0F1807F01D3012010BD4FF0E024606135
:102540000F21601702F016FA0020A0610720206119
:10255000002010BD7047704710B590F83C20012A4C
:1025600022D0012280F83C20CA688C6822F4407294
:1025700022434C6822F4806222430C6822F40062F9
:1025800022430C6922F4805222434C6922F4005207
:102590002243C969002322F480420A4301684A6445
:1025A00080F83C30002010BD022010BD70B590F8BE
:1025B0003C20012A2CD0012480F83C40022280F8E3
:1025C0003D2003685A689D6822F070060A6832430D
:1025D0005A60104B02689A420ED00F4B9A420BD0B1
:1025E000B2F1804F08D00D4B9A4205D00C4B9A4265
:1025F00002D00C4B9A4204D1496825F0800319435C
:10260000916080F83D40002180F83C10084670BD84
:10261000022070BD002C0140003401400004004045
:1026200000080040000C004010B50446022249B1E9
:1026300004290ED0082913D094F84500012816D09B
:10264000012010BD94F842000128F9D184F84220FD
:102650000FE094F843000128F2D184F8432008E009
:1026600094F844000128EBD184F8442001E084F878
:1026700045200422206801F0CEFB2068416C41F423
:10268000004141640E49206888420ED00D498842BD
:102690000BD0B0F1804F08D00B49884205D00B49D0
:1026A000884202D00A49884204D1816801F00701BA
:1026B000062903D0016841F001010160002010BD2E
:1026C000002C01400034014000040040000800409C
:1026D000000C004010B5040003D094F83D0010B188
:1026E00007E0012010BD002084F83C00204600F0E7
:1026F0001FF8022084F83D00211D206801F038FBFE
:10270000012084F8460084F83E0084F83F0084F8F5
:10271000400084F8410084F8420084F8430084F8C3
:10272000440084F8450084F83D00002010BD0000FE
:1027300008B5174A01681748914207D1816941F4E9
:1027400000618161806900F400601EE0124A9142DC
:1027500011D1C16941F01001C161C069002200F0CE
:102760001000009003213620FFF742FCBDE808402E
:102770003620FFF72FBC094A914207D1816941F405
:1027800000518161806900F40050009008BD000094
:10279000002C0140001002400010004000340140B5
:1027A00090F83D10012901D001207047022180F8E6
:1027B0003D100168CA6842F00102CA6000680E4913
:1027C00088420ED00D4988420BD0B0F1804F08D01E
:1027D0000B49884205D00B49884202D00A498842F9
:1027E00004D1816801F00701062903D0016841F096
:1027F0000101016000207047002C014000340140BD
:102800000004004000080040000C004070B5044681
:1028100090F83C000025012817D0012684F83C6080
:10282000022084F83D002068826822F0770222F4BA
:102830007F4282600868502838D00DDC20284FD0B5
:1028400005DC90B3102811D14AE0022070BD302879
:1028500046D040280AD13BE060282FD070280DD008
:10286000B0F5805F03D0B0F5005F12D0012584F889
:102870003D60002084F83C00284670BDCB68D1E95B
:102880000121206801F0D4FA2068816841F07701C5
:1028900009E0CB68D1E90121206801F0C9FA20687C
:1028A000816841F480418160E1E719E0CA684968C4
:1028B000206801F091FB5021206806E0CA68496851
:1028C000206801F09AFB6021206801F0BBFACEE796
:1028D000CA684968206801F07FFB40212068F4E75E
:1028E000226801461046F0E72DE9F0410D4604004C
:1028F00003D094F83D0018B108E00120BDE8F08154
:10290000002084F83C00204600F040F8022084F8C3
:102910003D002068816844F2070291438160211DD7
:10292000206801F025FA226890689169166A2B6880
:10293000AF69034340F20330814341EA0721A868AD
:10294000EF6908434FF6FC418843E96840EA0720F5
:10295000014328692F6A000140EA0730084369688B
:102960006D6926F0220646EA051529439360226820
:10297000906154F8460B0162012004F81F09E075CC
:102980002076E0762077A0750020B7E730B585B0D7
:102990000024009401940294039400684349444B3A
:1029A000444DB0F1804F15D0434CC022A0424BD1D2
:1029B000C86940F00200C861C86900F002000490D4
:1029C000886940F0040088618869009200F0040082
:1029D000049067E0C86940F00100C861C86900F070
:1029E00001000490886940F004008861886900F063
:1029F00004000490886940F008008861886969468D
:102A000000F0080004904FF4004000901846FFF7D3
:102A10007DF90820CDE90004694628460294FFF7B5
:102A200075F92648416821F4407141F0E06141F4B4
:102A300080714160002211461C20FFF7D9FA1C204A
:102A4000FFF7C8FA05B030BD1D4CA04215D1C869CA
:102A500040F00400C861C86900F00400049088696F
:102A600040F0080088618869694600F00800049019
:102A700000922846FFF74AF9E4E7124A9042E1D172
:102A8000C86940F00800C861C86900F008000490F7
:102A9000886940F004008861886900F004000490AF
:102AA0000320009069461846E4E700000010024049
:102AB00000080140000C01400004004000000140FB
:102AC00000080040000C004070B590F83E600446DD
:102AD00090F83F5090F8423090F84320022021B106
:102AE00004290ED0012E1BD114E0012E18D1012B88
:102AF00016D184F83E0084F84200012200212068AB
:102B000020E0012D0CD1012A0AD184F83F0084F87D
:102B1000430014E0012D03D1012B01D1012A01D082
:102B2000012070BD84F83E0084F83F0084F8420024
:102B300084F8430001220021206801F05FF901229E
:102B40000421206801F05AF92068016841F0010170
:102B50000160002070BD704770B5044600680169CF
:102B60004FF00005C943890715D4C168C9438907D7
:102B700011D4E91E01610120207720688069800757
:102B8000204602D0FFF7E7FF04E000F0F3F820460C
:102B900000F085F9257720680169C943490717D4F2
:102BA000C168C943490713D46FF0040101610220D1
:102BB00020772068806910F4407F204602D0FFF71C
:102BC000CAFF04E000F0D6F8204600F068F9257747
:102BD00020680169C943090716D4C168C9430907B8
:102BE00012D46FF008010161042020772068C069C9
:102BF0008007204602D0FFF7AEFF04E000F0BAF8ED
:102C0000204600F04CF9257720680169C943C906C0
:102C100017D4C168C943C90613D46FF0100101610C
:102C2000082020772068C06910F4407F204602D039
:102C3000FFF791FF04E000F09DF8204600F02FF927
:102C4000257720680169C943C90708D1C168C9430C
:102C5000C90704D1891E0161204600F07BF9206874
:102C60000169C943090609D4C168C943090605D4E5
:102C70006FF0800101612046FFF76CFC206801695C
:102C8000C943490609D4C168C943490605D46FF050
:102C900040010161204600F07FF920680169C943C5
:102CA00089060BD4C168C943890607D46FF0200197
:102CB00001612046BDE87040FFF74DBC70BD0000CB
:102CC00010B586B000210091019102910391224A32
:102CD000016822480224914229D1816941F008010A
:102CE0008161816901F008010491816941F0040169
:102CF00081618069009400F004000194CDE90340F3
:102D000069461748FFF702F8E001CDE9000469467B
:102D100014480394FEF7FAFF1348416821F0C001FC
:102D200041F0E06141F04001416006B010BD0F4A42
:102D30009142FAD1816941F010018161806969464F
:102D400000F0100004904FF42070CDE90004084812
:102D50000394FEF7DBFFE8E7002C0140001002407F
:102D6000000C014000080140000001400034014017
:102D700000100140704770B5044690F83C000026F2
:102D80000D4601280FD0012084F83C006AB1042AC6
:102D90001DD0082A2FD00C2A3FD00126002084F80D
:102DA0003C00304670BD022070BD206801F052F832
:102DB0002068816941F0080181612068816921F002
:102DC00004018161206881692A69114311E020684A
:102DD00001F070F82068816941F400618161206828
:102DE000816921F480618161206881692A6941EAF1
:102DF00002218161D2E7206801F092F82068C16960
:102E000041F00801C1612068C16921F00401C1617C
:102E10002068C1692A69114311E0206801F0B4F803
:102E20002068C16941F40061C1612068C16921F471
:102E30008061C1612068C1692A6941EA0221C161DA
:102E4000ACE710B5040003D094F83D0010B107E0E2
:102E5000012010BD002084F83C00204600F01EF840
:102E6000022084F83D00211D206800F081FF012030
:102E700084F8460084F83E0084F83F0084F840005F
:102E800084F8410084F8420084F8430084F8440048
:102E900084F8450084F83D00002010BD704770475D
:102EA00010B50446022249B104290ED0082913D0D6
:102EB00094F84100012816D0012010BD94F83E007E
:102EC0000128F9D184F83E200FE094F83F00012852
:102ED000F2D184F83F2008E094F840000128EBD1BB
:102EE00084F8402001E084F841200122206800F0AD
:102EF00085FF13492068134A884201D0904203D1CC
:102F0000436C43F400434364206888420DD09042F0
:102F10000BD0B0F1804F08D00B49884205D00B4947
:102F2000884202D00A49884204D1816801F0070131
:102F3000062903D0016841F001010160002010BDA5
:102F4000002C014000340140000400400008004013
:102F5000000C004010B500680A49884211D10A49A6
:102F60000020FEF789FA09490320FEF785FA08498F
:102F70000120FEF781FABDE8104006490220FEF765
:102F80007BBA10BD00100040D40100201C020020BC
:102F900064020020AC0200207047704770470000B8
:102FA000F8B5016804460868CA684B6910F00F0F4D
:102FB0004FF0000559D003F0010602F49077374333
:102FC00065D0C10705D0D10503D5616C41F0010181
:102FD0006164410705D5D90703D0616C41F0020156
:102FE0006164810705D5D90703D0616C41F0040104
:102FF0006164010707D502F02001314303D0616C01
:1030000041F008016164616C00293AD0800604D562
:10301000900602D5204601F0B6F820684069616C40
:10302000C0F38010090700D460B3204601F076F8A1
:1030300020684069400621D52068143050E8001F00
:1030400021F0400140E80012002AF5D1E06BA8B160
:103050006D494163E06BFEF763FB002811D0E06B24
:10306000416B01B0BDE8F040084783060FD59306D9
:103070000DD52046BDE8F84001F085B82046FFF7A1
:103080008DFFF8BD2046FFF789FF6564F8BD266B0C
:103090002023012E7CD1C6067AD5D60678D50868BD
:1030A0004868009048694FF00206400640D5E16B41
:1030B000086840680004000CE8D0A28D8242E5D97F
:1030C000E085886920282DD020680C3050E8001F4A
:1030D00021F4807140E80012002AF5D120681430F4
:1030E00050E8001F21F0010140E80012002AF5D14C
:1030F0002068143050E8001F21F0400140E8001221
:10310000002AF5D184F84230256320680C3050E85D
:10311000001F21F0100140E80012002AF5D1E06BF9
:10312000FEF7DAFA6663A08DE18D401A81B22AE0DB
:10313000A08DE18D401A81B2E08D0028A6D0002933
:10314000A4D022680C3252E8000F20F4907042E8BC
:103150000007002FF5D12068143050E8002F22F02E
:10316000010240E80027002FF5D184F842302563A2
:1031700020680C3050E8002F22F0100240E80023B5
:10318000002BF5D166632046FFF707FFF8BDFFE788
:1031900005062BD5150629D594F841002128F5D12F
:1031A000A068B0F5805F01D12069B0B1206A411CF0
:1031B0002162216800784860E08C401E0004000C09
:1031C000E084E3D12068C16821F08001C1602068FB
:1031D000C16841F04001C160D8E7206A0088C0F3AF
:1031E00008004860206A801C2062E5E74006CDD5D3
:1031F0005006CBD5CA68204622F04002CA6084F847
:10320000413000F0FCF8C1E71F40000870B5040031
:1032100004D094F84100002510B106E0012070BDF3
:1032200084F84050204600F023F8242084F8410020
:103230002068C16821F40051C160204601F004F803
:103240002068016921F4904101612068416921F001
:103250002A0141612068C16841F40051C160656480
:10326000202084F8410084F842006563002070BD8E
:10327000F0B585B0002500950195029503950646A9
:10328000384F0368384902200322384CBB4226D10C
:103290008B6943F480438B618B6903F4804304930F
:1032A0008B6943F004038B618969039201F0040187
:1032B00004910102CDE9001069462046FEF726FD83
:1032C0002015CDE90005694620460295FEF71EFD52
:1032D000002201212520FEF78BFE25203DE0244F12
:1032E000BB423CD1CB6943F40033CB61CB6903F4DF
:1032F000003304938B6943F004038B618969039263
:1033000001F0040104910421CDE900106946204632
:10331000FEF7FCFC0820CDE9000569462046029531
:10332000FEF7F4FC144C1348C4E900058020C4E9FE
:10333000025020202561C4E90550C001E06120460B
:10334000FEF7AAFB08B1FEF73AF9F4630022114632
:1033500026206662FEF74CFE2620FEF73BFE05B0F7
:10336000F0BD00000038014000100240000801409C
:10337000004400406C0002401404002090F84230E9
:10338000202B01D00220704721B11AB10023036322
:1033900000F0B6BF0120704790F84230202B01D0DA
:1033A0000220704721B11AB10023036300F0F0BF7F
:1033B0000120704710B5044600680B49884209D1C6
:1033C0000A4801780A4800F047F8012207490948ED
:1033D000FFF7E2FF08492068884203D1BDE81040AA
:1033E000FEF7DEB810BD00000038014014000020D8
:1033F0009805002084030020004400407047704777
:10340000F0B500242346254605E000BF00EB830607
:103410005B1CDBB2F564B0F84260761C9E42F5D8C6
:10342000002312E0CD5C2C2D0BD000EB8405EE6C5C
:1034300006EB86067600EE64CF5C3E44303EEE64DA
:1034400001E0641CE4B25B1CDBB29342EAD320F8D7
:10345000424F01218171F0BD70B5044690F87400AF
:1034600001220025702801D170290ED094F8460061
:10347000A0B1B4F84400661C431CA4F84430815544
:1034800094F874000D2805D006E084F8462084F8EE
:10349000745070BD0A2912D084F8741094F8470053
:1034A000A0B100BFB4F84400611C801E82B2204667
:1034B000FFF7A6FF84F84750A4F8445070BD84F885
:1034C000465084F8472084F87450EBE784F8741071
:1034D00070BD000030B400231A46C4185B1C9BB2B8
:1034E0006270402BF9D300F82A1B064902834283FD
:1034F00002774277827780F84A2030BC0122024866
:10350000FFF74ABF1400002084030020FEE790F874
:10351000481021B1002180F8481001207047002098
:1035200070470000094808B5416941F00101416157
:103530004069002200F00100009011461020FEF7C3
:1035400057FDBDE808401020FEF744BD00100240C2
:103550002DE9F04786B0002431480094019402948C
:103560000394816941F010018161816901F01001CA
:103570000491816941F020018161816901F020019C
:103580000491816941F004018161816901F00401C4
:103590000491816941F0080181618069DFF88480CC
:1035A00000F008004FF405550490002229464046DB
:1035B000FEF7ADFCDFF87090002201214846FEF7CF
:1035C000A6FCDFF868A04FF4006700223946504699
:1035D000FEF79DFC0095032601250396CDE90154D5
:1035E00069464046FEF792FB03960095CDE90154EB
:1035F00069464846FEF78AFB00970396CDE90154D9
:1036000069465046FEF782FB0420CDE90004694676
:1036100007480294FEF77AFB06B0BDE8F087000089
:103620000010024000100140000C01400008014061
:103630000014014010B596B000240F94109411941A
:10364000129413941C2168461494FCF7F2FE202176
:1036500007A8FCF7EEFE2D482B4901604721C0E981
:10366000011440F2E731C0E903148021C0E90541AB
:10367000FFF730F808B1FDF7A2FF4FF480500F902C
:103680000FA92248FFF7C2F808B1FDF798FF1F48BD
:10369000FFF7D7FB08B1FDF792FF139413A91B485E
:1036A0001494FEF783FF08B1FDF789FF6020CDE990
:1036B000000402940394049405940022694613487C
:1036C0000694FFF758FB08B1FDF779FF0822694619
:1036D0000E48FFF750FB08B1FDF771FF07940894FF
:1036E00009944FF400500A94CDE90B4007A907480C
:1036F0000E94FEF731FF08B1FDF761FF0348FFF7B5
:10370000DFFA16B010BD0000002C01408C01002033
:1037100010B58CB024216846FCF78BFE00241548B8
:1037200009944FF080410A94C0E9001447F6FF71F4
:10373000C0E90241046184610320CDE90004012055
:10374000CDE902040494CDE905400794694609488F
:103750000894FFF7C9F808B1FDF731FF099409A9EA
:1037600004480A94FEF722FF002801D0FDF727FF46
:103770000CB010BDD401002010B58CB024216846D7
:10378000FCF757FE00241648099414490A94C0E92E
:10379000001447F6FF71C0E902410461846103200F
:1037A000CDE900040120CDE902040494CDE90540EF
:1037B000079469460A480894FFF796F808B1FDF7A0
:1037C000FEFE099409A906480A94FEF7EFFE0028B8
:1037D00001D0FDF7F4FE0CB010BD00000004004065
:1037E0001C02002010B58CB024216846FCF721FE95
:1037F00000241648099414490A94C0E9001447F6B5
:10380000FF71C0E90241046184610320CDE9000435
:103810000120CDE902040494CDE9054007946946EE
:103820000A480894FFF760F808B1FDF7C8FE09944C
:1038300009A906480A94FEF7B9FE002801D0FDF751
:10384000BEFE0CB010BD0000000800406402002065
:1038500010B58CB024216846FCF7EBFD0024164817
:10386000099414490A94C0E9001447F6FF71C0E9AD
:103870000241046184610320CDE900040120CDE907
:1038800002040494CDE90540079469460A48089467
:10389000FFF72AF808B1FDF792FE099409A9064836
:1038A0000A94FEF783FE002801D0FDF788FE0CB0D5
:1038B00010BD0000000C0040AC0200201CB500242C
:1038C0000F4800940D490194016041F61F41C0E981
:1038D000011440F2F311C16080218161FEF7FAFE0C
:1038E00008B1FDF76CFE0094694605480194FEF7A7
:1038F0005DFE002801D0FDF762FE1CBD00100040F7
:10390000F402002010B596B000240F941094119486
:10391000129413941C2168461494FCF78AFD20210C
:1039200007A8FCF786FD2D482B4901604721C0E917
:10393000011440F2E731C0E903148021C0E90541D8
:10394000FEF7C8FE08B1FDF73AFE4FF480500F9025
:103950000FA92248FEF75AFF08B1FDF730FE1F48B5
:10396000FFF76FFA08B1FDF72AFE139413A91B485D
:103970001494FEF71BFE08B1FDF721FE6020CDE98F
:1039800000040294039404940594042269461348A5
:103990000694FFF7F0F908B1FDF711FE0C22694615
:1039A0000E48FFF7E8F908B1FDF709FE07940894FF
:1039B00009944FF400500A94CDE90B4007A9074839
:1039C0000E94FEF7C9FD08B1FDF7F9FD0348FFF7B6
:1039D00077F916B010BD0000003401403C03002010
:1039E0000C4810B50A4901604FF4E13141600021F3
:1039F00081600C22C160C0E904128161C161FFF7DE
:103A000005FC002803D0BDE81040FDF7D8BD10BD6F
:103A100000380140840300200E4810B50C490160B5
:103A20000D4941604FF48051816000214FF4806264
:103A3000C0E903120422C0E90521C161FFF7E6FBDA
:103A4000002803D0BDE81040FDF7B9BD10BD00004F
:103A500000440040CC030020A0860100FEE70000E7
:103A60002DE9F041054600EBC5010F4800EBC1040C
:103A7000606801F08DFD0D4E014604F1100007460F
:103A8000326800F05FFE384600F03EFF606B01F0E8
:103A900043FD01B2284601F0ADF83220FEF772F87E
:103AA000E069B060BDE8F08178040020780600206D
:103AB0002DE9F041002421462248FFF7F1F90821C1
:103AC0002048FEF7B1FD04211F48FFF7E9F90C215A
:103AD0001D48FFF7E5F93C211C48FEF7F5FF3C21A6
:103AE0001B48FEF7F1FF3C211A48FEF7EDFF3C2191
:103AF0001948FEF7E9FF4FF0804140F2FF7048623D
:103B00001649086016490860164908601648FEF70D
:103B100047FE164B164A174E174F00214FF07A55A5
:103B200004EBC40002EBC000641C06640361C0E93E
:103B30000551C0E90E17E4B20181042CF0D3BDE8B1
:103B4000F08100008C0100203C030020D401002003
:103B50001C02002064020020AC020020240400406B
:103B600024080040240C0040F40200200000A04083
:103B70007804002000007A4400002F44FEE7000093
:103B80002DE9F041DFF85080002400BF04EBC401B0
:103B900008EBC105B5F9080001F0FAFC06466868B3
:103BA00001F0F6FC014605F110000746324600F030
:103BB000C9FD384600F01EFE384600F0A5FE686BD1
:103BC00001F0AAFC01B2204601F014F8641CE4B232
:103BD000042CDBD3BDE8F08178040020704700009E
:103BE00010B5054B002203E010CB40F82240521CD8
:103BF0008A42F9D310BD000000B8070870470000E2
:103C0000F0B585B00E460746FEF76CF8002004902C
:103C10000090134C0120CDE9024004A96846FDF74D
:103C2000C3FF18B1FEF714F805B0F0BD00250FE092
:103C300057F82520002321460220FEF713F8241D03
:103C400028B1FEF705F807A0FCF724FBECE76D1C94
:103C5000B542EDD3FDF7FCFFFDF7FAFF06A0F3E751
:103C600000B80708666C6173682077726974652014
:103C70006572726F720D0A00666C617368207772EC
:103C80006974652066696E6973680D0A000000003A
:103C900070B50546B0F842200178002408A0FCF772
:103CA000F9FA08E005EB84002146C26C0CA0FCF791
:103CB000F1FA641CE4B2B5F84200A042F2D870BD3B
:103CC0000A2055415254202564206465636F646561
:103CD0002025642064617461733A0D0A00000000BD
:103CE000726563765265735B25645D3A25640D0ADF
:103CF00000000000FEF716B930B58FB028216846E5
:103D0000FCF797FB14210AA8FCF793FB0121080498
:103D1000CDE900100024029402250491CDE907505A
:103D20004FF4E01009906846FEF770FA08B172B6D9
:103D3000FEE70F20CDE90A054FF48060CDE90C4085
:103D400002210AA80E94FEF785F9002801D072B668
:103D5000FEE70FB030BD70470148FEF7FDBE000022
:103D6000D40100200148FEF7F7BE0000F402002055
:103D7000F0B502681C4B1D4D1D4E1E4F1E4C4FF0E2
:103D8000804C984209D0A04207D0604505D0A84297
:103D900003D0B04201D0B84204D122F0700E4A687C
:103DA00042EA0E02984209D0A04207D0604505D0F1
:103DB000A84203D0B04201D0B84203D122F44075EA
:103DC000CA682A434D6922F080022A4302608A6849
:103DD000C2620A688262984201D0A04201D1096998
:103DE000016301214161F0BD002C0140000400404D
:103DF00000080040000C00400034014010B501F004
:103E00001F030121046A99408C430462016A9A40AD
:103E10001143016210BD10B501F01F030421046AB3
:103E200099408C430462016A9A401143016210BDBB
:103E300010B5846842EA032224F47F440A432243F3
:103E4000826010BD826822F070020A4342F00701CE
:103E500081607047F0B5036A026A22F001020262D3
:103E600042688469124E24F073050C682C4323F0D9
:103E700002058B682B430D4DA84201D0B04205D1FD
:103E800023F00807CB683B4323F00403A84201D08A
:103E9000B04205D14D6922F4407215438A692A4324
:103EA00042608461496841630362F0BD002C0140B7
:103EB00000340140F0B5026A036A23F01003036284
:103EC000436884690D6824F4E64444EA05248D6857
:103ED00022F0200242EA05120F4D104EA84201D0F6
:103EE000B04206D1CF6822F0800242EA071222F0E7
:103EF0004002A84201D0B04207D14D6923F440638B
:103F000043EA85038D6943EA850343608461496818
:103F100081630262F0BD0000002C014000340140CA
:103F2000F0B5026A036A23F4807303624368C469CC
:103F300022F4007224F073050C68124E2C438D6835
:103F400042EA05220E4DA84201D0B04206D1CF6808
:103F500022F4006242EA072222F48062A84201D0E1
:103F6000B04207D14D6923F4405343EA05138D69EC
:103F700043EA05134360C4614968C1630262F0BD4E
:103F8000002C01400034014030B5046A026A22F47A
:103F9000805202624268C3690D6823F4E64343EA33
:103FA00005238D6824F4005444EA0534084DA842E2
:103FB00002D0084DA84204D14D6922F4804242EA61
:103FC00085124260C36149680164046230BD00002B
:103FD000002C01400034014010B5036A046A24F04B
:103FE00001040462846924F0F00444EA021423F01A
:103FF0000A020A438461026210BD10B5036A046AB2
:1040000024F010040462846923F0A00324F47044B3
:1040100044EA023243EA01118261016210BD10B527
:10402000406A0021C185C184FEF7B8FF10BD70B59C
:10403000446A2068406994F84110C0F3C01000251C
:10404000212904D118B1E584204600F08EF82068BB
:10405000406994F84210C0F38010222904D118B1AD
:10406000E585204600F05AF8606C40F0100060646E
:104070002046FEF793FF70BD10B50146406A0968FF
:1040800009684FF0000289062ED4C28501680C3100
:1040900051E8003F23F4807341E80034002CF5D14F
:1040A0000168143151E8003F23F0010341E8003476
:1040B000002CF5D10168143151E8003F23F0400392
:1040C00041E80034002CF5D1202180F84210016B2A
:1040D000012909D101680C3151E8003F23F0100398
:1040E00041E80034002CF5D14263016B012902D074
:1040F000FFF760F910BD818DFEF74FFF10BD10B5C1
:10410000406A01214163016B012902D0FFF776F972
:1041100010BD818D4908FEF740FF10BD01680C31CC
:1041200051E8002F22F4907241E80023002BF5D1D2
:104130000168143151E8002F22F0010241E8002308
:10414000002BF5D1016B012909D101680C3151E82F
:10415000002F22F0100241E80023002BF5D120218E
:1041600080F8421000210163704701680C3151E86A
:10417000002F22F0C00241E80023002BF5D12021BE
:1041800080F84110704708B590F84210222901D0FC
:10419000022008BD82684FF480539A4201D1016920
:1041A00021B1816A9A421BD04AB10AE00268816A51
:1041B0005268C2F308020A80816A891C08E0026919
:1041C00072B10268526802F07F020A70816A491C6B
:1041D0008162C18D491E0904090CC18503D01BE011
:1041E00002685268F1E70168CA6822F02002CA60DA
:1041F0000168CA6822F48072CA6001684A6922F0C4
:1042000001024A61202180F8421000214163026BC3
:10421000012A03D0FFF7CEF8002008BD0163016832
:104220000C3151E8002F22F0100241E80023002B4E
:10423000F5D101680A68D20602D50A68496800917A
:10424000818DFEF7AAFEE7E770B5044600680169B4
:10425000E26821F44051114301612169A0680843DB
:10426000616908432168CA6841F20C639A430243BA
:10427000CA6020684169A26921F44071114341611B
:104280001E492068884202D1FDF78AFF01E0FDF750
:1042900077FF00EBC00101EB001260686421800031
:1042A000B2FBF0F3B3FBF1F36FF018067343B2FB0C
:1042B000F0F5B2FBF0F605EB8305322303EB0515B1
:1042C000B5FBF1F5B6FBF1F605F0F00505EB0615CB
:1042D000B2FBF0F6B2FBF0F0B0FBF1F06FF01802B9
:1042E000504306EB800003EB0010B0FBF1F02168B7
:1042F00000F00F002844886070BD000000380140C5
:1043000038B581620446828500201346606422220B
:1043100084F84220E56B1B4AAA62E56B1A4AEA62FE
:10432000E56B1A4A2A63E26B50630A462168E06B28
:10433000091DFDF7EFFB20680168406800902069C7
:1043400048B120680C3050E8001F41F4807140E80B
:104350000012002AF5D12068143050E8001F41F007
:10436000010140E80012002AF5D12068143050E81D
:10437000001F41F0400140E80012002AF5D1002062
:1043800038BD000079400008FF4000082F400008B9
:1043900081628285C28500214164222180F8421019
:1043A000016921B10168CA6842F48072CA6001687B
:1043B0004A6942F001024A610068C16841F0200187
:1043C000C1600020704700000148FEF7E9BD000011
:1043D000840300200148FEF7E3BD0000CC03002069
:1043E000FEE700002DE9F14F84B0049800EBC00116
:1043F000A24800EBC10404F11000A1490290FDF7AE
:104400009FF84FF0804020614FF07A5060619C4EE1
:104410009C4900200C3EE163A06130609AA0FBF74C
:1044200039FF9F4D0498FFF71BFBE069AA4620F077
:1044300000415145F6DC6420FDF7A4FB99A0FBF791
:1044400029FF04989E4900EB400202EBC000DFF810
:1044500068B2DFF86892062501EB80060190681FBC
:1044600000EB8000800001F093F8854F0C3F38602E
:10447000FDF752FDDFF84882A8F10808C8F80000EF
:10448000386800F0EDFE02460B468EA0FBF702FFF7
:104490004746E16AE06B01F0C5F920F0004159455B
:1044A00002DDFDF739FD7860E16AE06B01F0BAF9F1
:1044B00020F00041494517DAFDF72EFD7968411AD1
:1044C00040F6B83081420FD984A0FBF7E3FE606B61
:1044D000009005E0009801F01FF846F825006D1CDB
:1044E0000B2DF7DB0C2516E00498FFF7B9FAE0690D
:1044F00020F00041514502DDFDF70EFD3860FDF76B
:104500000BFD3968401AB0F5FA6FC2D9606B01F043
:1045100003F846F82500606B00F0A2FE02460B4649
:1045200072A0FBF7B7FE6D1C0B2D98DBDFF850B1C6
:104530000020ABF10C0B5546CBF800000498FFF7B8
:104540008FFAE069AA4620F000415145F6DC0425C7
:10455000CB46B846681F00EB8000800001F018F8D9
:10456000474F0C3F3860FDF7D7FCC8F800003868AB
:1045700000F076FE02460B4652A0FBF78BFEDFF8FA
:1045800038914746E16AE06B01F04CF920F00041B8
:10459000494502DDFDF7C0FC7860E16AE06B01F09F
:1045A00041F920F00041594515DAFDF7B5FC79686D
:1045B000411A40F6B83081420DD948A0FBF76AFE97
:1045C000002D1FDB606B00F0A7FF00BF46F8250041
:1045D0006D1EFBD516E00498FFF742FAE06920F063
:1045E0000041514502DDFDF797FC3860FDF794FC72
:1045F0003968401AB0F5FA6FC4D9606B00F08CFFCF
:1046000046F82500606B00F02BFE02460B4637A0F3
:10461000FBF740FE6D1E9DD5194900200C3955460B
:1046200008600498FFF71CFAE06920F00040A842F7
:10463000F7DC31A0FBF72EFE11480299FCF780FF52
:104640002C211F48FFF7DCFA2C213048FFF7C8FA6D
:104650001B48FCF7D3FE2D48FCF7D0FE2B490198F0
:1046600001EB8000F168C068884201D128A000E019
:104670002EA005B0BDE8F04FFBF70CBE780400207B
:104680008406002000007A444D6F746F72204175DB
:10469000746F205465737420426567696E0D0A005B
:1046A000000090404D6F746F722053746F702046FD
:1046B000696E6973680D0A000000F0410000204136
:1046C000DC0000204D6F746F722053657453706569
:1046D00065643A252E32660D0A00000046756C6C42
:1046E00020506F77657221210D0A00005265733AE0
:1046F000252E32660D0A0000416C6C2054657374DF
:104700002046696E6973680D0A00000024000020CD
:10471000466C617368205361766564212043686547
:10472000636B20506173730D0A000000466C617367
:1047300068205361766564204552524F5221200D06
:104740000A0000002DE9F041044602610D461046C2
:1047500001F068F8E0600646216800F065FFA0619E
:104760003046A16A01F02CF806D3A06AE16880F017
:10477000004001F025F807D26168E06800F054FFBE
:10478000E16900F099FDE0612846616901F04AF8AD
:10479000A16800F049FF07462062D4E906063146C9
:1047A00000F08AFD394600F087FD60623046E16A1C
:1047B00001F006F8E06A08D380F00040E16900F0FB
:1047C000FFFF03D2E06A80F00040E061216B606A85
:1047D00000F0F6FF206B08D380F00040616A00F023
:1047E000EFFF03D2206B80F0004060626561606A79
:1047F000BDE8F0812DE9F04705463D480027854298
:1048000000D101273A484830854200D10227384874
:104810009030854200D103272C69364E24F00040A9
:10482000B04262DC2146686B00F0FCFF20F00040E3
:10483000B0F1804F59DB314620466C6300F03CFDFF
:104840002D4900F0A7FD00F083FEC6B2701F00EBFB
:104850008000800000F09CFE8146301F00EB80004D
:10486000800000F095FE804607EB470000EBC70193
:10487000224800EB810757F8260000F089FE8246A7
:1048800007EB8600406800F083FE06464946204656
:1048900000F096FE00D24C464146204600F090FFC4
:1048A00000D244465146304600F0BCFF0746494618
:1048B000404600F0B7FF06464946204600F0B2FFEA
:1048C000314600F067FD394600F0AEFE514600F07B
:1048D000F3FC0A49091F086000F0C2FC084A094BB2
:1048E00000F0C0FB00F0EEF9E861BDE8F0870000E1
:1048F000D00400200000C8420000A0412400002095
:104900009A9999999999E93F70B50446006920F000
:104910000040B0F17E5F12DCE068094920F00045FC
:104920008D4206DD074900F07FFEE16900F0C4FC1E
:10493000E0610548854202DA0020E061606270BDF6
:1049400000002042000040400000A041490050EA21
:10495000C12018BF04204A0D18BF40F0010040F2EA
:10496000FF72B2EB515F08BF40F00200012808BFA0
:10497000052070470907090E002804DB00F1E0203C
:1049800080F80014704700F00F0000F1E02080F87C
:10499000141D704730380A2801D2012070470020CA
:1049A0007047704704490A685206FCD5024AC1B2F2
:1049B000121D11607047000000380140FDF7BAFA7F
:1049C000FFF79AF9FEF7C4FDFEF734FEFEF7A0FEEE
:1049D000FEF7D2FEFEF706FFFEF73AFFFEF792FF64
:1049E000FEF7FEFFFEF79EFDFFF716F8FEF766FFE7
:1049F000FFF75EF863A0FBF74DFCFCF7C7FD6420F2
:104A0000FDF7C0F82C216248FFF7EAF86048FCF790
:104A1000F5FC00215F48FEF75DFD4FF47A763046E5
:104A2000FDF7B0F804215C48FDF76CFA58B9022094
:104A3000FFF7D8FC0320FFF7D5FC0120FFF7D2FCDD
:104A40000020FFF7CFFC55A0FBF724FC3046FDF714
:104A500099F8DFF84081DFF850A1544D544C4FF0E5
:104A600000094C48FEF753FD70B14A48FFF710F9B2
:104A7000D8F84C104246012919D002292AD003291E
:104A800030D04CA0FBF706FCFDF746FA6969401AE6
:104A9000B04260D2B5F9060000F52571B1F5A56FF9
:104AA00069D800F11E013C2931D8002738E032F8DE
:104AB000500F6438208190886438A4F85000108921
:104AC0006438A4F89800B8F85C006438A4F8E000F2
:104AD0003FA019E0A4F80890A4F850904846A4F824
:104AE00098900EE0B2F85000B8F854106438643969
:104AF0004218431A2281A4F85030081AA4F89800EA
:104B00005042A4F8E00037A0FBF7C4FBBCE700F07C
:104B100092FA0022534600F007F900F05DFA07B25E
:104B2000B5F9040000F11E013C2901D8002008E07D
:104B300000F081FA0022534600F0F6F800F04CFA3B
:104B400000B239183A1A2181A4F85020C01BA4F8E9
:104B5000980048420DE0FDF7DFF96969401AB0F5A9
:104B6000966F08D2A4F80890A4F850904846A4F88C
:104B70009890A4F8E000FFF703F83220FDF702F860
:104B80006FE7000068656C6C6F205951590D0A0081
:104B90002400002098050020001401407374617205
:104BA0007452756E0D0A000000001C406006002063
:104BB000780400204572726F72204F7074696F6EB6
:104BC0007320466F7220436F64653A25640D0A00B6
:104BD0004D6F746F722053706420557064617465FA
:104BE0000D0A00004D6F746F722053746F700D0AC0
:104BF000000000002DE9F0410C4601002148C4F5F9
:104C00007A77C4F1000612D004F57A75012917D01D
:104C100002291FD0032908D11B481C4E002C2ADB77
:104C200000220121FDF773F93460BDE8F081184DD1
:104C3000002C02DB0122402114E00022402116E07A
:104C4000134E4FF480710836002C01DB0022E9E797
:104C5000012212E00D4D0F48083D4FF40061002C79
:104C600004DB0122FDF753F92F60DEE70022FDF798
:104C70004EF92E60D9E701221146FDF748F935605B
:104C8000D3E7000000100140000C01403C2C014023
:104C9000383401400008014010B500290AD00878D6
:104CA000002807D005487844FBF7ACFF002801D066
:104CB000002010BD0248784410BD00004A0D0000DD
:104CC000420D000021F00042A2F16052B2F5801FB7
:104CD00001F0004328BFD2F17F6C0BD95FEA001CC2
:104CE00043EAC20242EB507018BF704728BF20F061
:104CF00001007047B2F5801FBCBF184670474FEAED
:104D0000410C1CF5001F02D2084600F054BD70B5DE
:104D100000F052FA00000089FFF7F6BF4FF00040A4
:104D2000A0F58000704700002DE9C04130B4DFF8E5
:104D3000A0C23CEA111418BF3CEA131400F0EC8046
:104D400081EA03051CEA111444EAD57418BF1CEA71
:104D5000131500F0C780A4EB05044FF0004545EAA9
:104D6000C12145EAC32341EA505143EA525304F1B9
:104D70007F74994204F500344FEAC0204FEAC22202
:104D800008BF904200F09C804FEA13650FF2401676
:104D9000765D4FEA134506FB05F7C7F1807706FB02
:104DA00007F74FEAD737A7FB03687642C8F5803884
:104DB000A7FB06CE38BFA8F1010807FB08E64FF0B5
:104DC000000EA6FB028CE6FB03CEDCF1000CCEF15C
:104DD000004E38BFAEF1010EA6FB0C584FF0000795
:104DE0004FF00005E6FB0E87A1FB08C6A0FB07CE2F
:104DF00016EB0E0645F10005E1FB076515F1E04EE7
:104E00007EBFA4F580345FEA46066D4116F1800747
:104E100045F100054FEA17274FEA066647EA05679E
:104E2000A6F1DE46B6F1805F4FEA15251FD9384658
:104E300024F0010C05EBC471BCF1FE6F01EB0C1109
:104E400002D8F0BCBDE8008124425CBF01F5801EA1
:104E50009EEAC47F02D4F0BCBDE80081244238D46D
:104E6000F0BCA1F1C041BDE8004100F0F3B94FEA48
:104E7000D22242EA43524FEAD323A7FB02864FEAEB
:104E8000D02040EA415007FB03661EEA0E0F4FEAAE
:104E9000D12105FB026658BFA6EB0056B6EB0056C3
:104EA0004FEA520E4EEAC37E18EB0E0E56EB530E2F
:104EB000BDD518EB02085E417F1C55F10005B6E731
:104EC0004FF480154FF000074FF000064FF0000838
:104ED000ADE7F0BC4FF0000001F1C04101F000412E
:104EE000BDE8008111EA0C1F0CEA131500D00CE09C
:104EF00013EA0C1F00F025804FF00000F0BC81EA9F
:104F0000030101F00041BDE80081F0BCBDE80041B3
:104F100081EA030100F09EB9F0BCBDE8004170B524
:104F200000F04AF9097EFC3E00F007B881EA03016F
:104F30004FF0000001F00041704781EA030100F0EA
:104F400089B9F0BCBDE800414FF00000214970472D
:104F5000FFFDFBF9F7F5F4F2F0EEEDEBE9E8E6E43E
:104F6000E3E1E0DEDDDBDAD8D7D5D4D3D1D0CFCDC5
:104F7000CCCBCAC8C7C6C5C4C2C1C0BFBEBDBCBBFE
:104F8000BAB9B8B7B6B5B4B3B2B1B0AFAEADACABF9
:104F9000AAA9A8A8A7A6A5A4A3A3A2A1A09F9F9ED3
:104FA0009D9C9C9B9A999998979796959594939385
:104FB000929191908F8F8E8E8D8C8C8B8B8A89891C
:104FC000888887878685858484838382828181809F
:104FD0000000FF070000F87F4FEA41034FEA5353F8
:104FE000A3F58063D3F11E03C8BFD3F1210C0CDD00
:104FF0004FF0004242EAC12242EA505232FA03FC28
:105000008CEAE17CACEBE1707047102BC4BF002050
:10501000704703F5787CBCF1FF3F04D06FF000428D
:1050200082EA2100704770B500F0C6F849922480EA
:1050300000207047F2E710F0004248BF4042B0FA4B
:1050400080F310FA03F10AD0C3F11D0303F5806366
:105050004FEA415002EB035202EBD12170474FF06F
:1050600000007047DFF848C170B51CEA111E1EBF72
:105070001CEA13159EEA0C0F95EA0C0F00F06F80E6
:1050800081EA030423EA4C134EEAD47E21EA4C1150
:1050900041F4801143F48013AE44A1FB024CA0FB09
:1050A0000365AEF17F7E361955EB0C05A1FB034C71
:1050B0004CF10003A0FB021C16EB0C06654153F1FA
:1050C0000003094218BF46F0010613F4007F0BD11C
:1050D0004FEA03314FEA0530340341EA155140EA03
:1050E00016506FF003020AE04FEAC3214FEAC520D1
:1050F000F40241EA555140EA56506FF0020202EBC9
:105100002E4201EB025585EACE710AD05FEA440CCB
:1051100018BF24F0004450F1000041F1000120EAE2
:10512000D47040F2FE7C624500D270BDA84214BF2C
:105130004FF080444FF04044002E08BF0024BEF1E1
:10514000806FA8BFA1F1C041BDE8704080F28280AD
:105150004FF0000001F1C04101F0004170479EEAAC
:105160000C0F0CEA131518BF95EA0C0F06D04FF080
:10517000000081EA030E0EF0004170BD00F01CF843
:105180008900013E00F007B800F009B84FEA430C6F
:105190005FEA5C5C08D081EA030100F05BB84FEA8B
:1051A000410C5FEA5C5CF6D14FF0000001497047AA
:1051B0000000FF070000F87F0EF1020E2EF0030E34
:1051C0005EF8046B364205D4012A43EB030515F55E
:1051D000001F12D8012841EB010C1CF5001F0CD850
:1051E0000ED14FEAD17C15F5001F0CEB4C0C0CF1E5
:1051F000020C08BF4CEBD37C04E04FF0080C01E03C
:105200004FEAD37C0CEB4C0526FA05F606F00706B0
:10521000B6F1040C06D20EEB860CBDE870404CF0E3
:10522000010C6047DFE80CF0090B02024FF000416F
:105230004FF00000A1F5002170BD1946104601286D
:1052400051EB010418BFD4F5001484BF002001F015
:10525000004170BD0808A0F500114FEA3101704708
:1052600043004FEAD30C4FEA3C0C43401FBF4007BA
:105270000CF1605113F0FE4F70471CF0006F03D12A
:1052800000200CF0004170470CF0004343EA5070DE
:1052900010B540EACC0000F048FA00BF00000092D0
:1052A0004FEA0001FFF7D6BF4FF000414FF000007A
:1052B000A1F500217047000090EA010F48BF81F07E
:1052C000004100F1B682421A3CBF801A89184FEAA9
:1052D000D0524FF07F4C1CEA410FA2EBD15318BFC4
:1052E0009CEA026F00F03B804FF0004C4CEA00203B
:1052F0004CEA012121FA03FC10EB0C0C1ED202F146
:10530000FF325FEA1C2040EBC25038BF70471CF0F0
:105310007F0F4FEA400C18BFBCF17F4F38BF70477A
:10532000C3F12003994008BF20F00100BCF17F4F7A
:1053300038BF7047A0F1C04000F03DBA4FEA3C00D2
:10534000000A40EBC25028BF1CF0FF0F4FEA400C90
:10535000E6D018BFBCF17F4F38BF7047EAE79CEA40
:10536000026F05D010EA5C0F08BF00F000407047E4
:1053700010B500F0DAF900BF64FBBE3E401058BF24
:10538000C0F14040491058BFC1F140418142EFF3A4
:10539000008070474FF47F0C1CEAD0121EBF1CEA3D
:1053A000D11392EA0C0F93EA0C0F00F0858090EA7B
:1053B000010F48BF42F4807240F4000C41F4000039
:1053C0002CF07F4120F07F4000B58142A2EB030228
:1053D0000FF2081CACEB504EC0F100009EF800E04C
:1053E0004FEA4E0E00FB0EFC38BF49004FEA2C1C62
:1053F00002F5FA020CFB0EF34FEACE1E4FEA112C17
:105400004FEAC1210EEB635E42EB22420EFB0CFC25
:105410004FEA1C5300FB03114FEA112C4FEA0131F4
:105420000EFB0CFC4FEADC4C00FB0C11C14228BF08
:1054300009184CEB03335DF804EB10EB410143EB2F
:10544000C250B2F57C0F38BF704729D512F0F00F6B
:105450001CBF00F1C04000F0004070470081828313
:105460008485868788898B8C8D8E8F919293959673
:1054700097999A9C9D9FA0A2A3A5A7A8AAACAEB0FD
:10548000B2B3B5B7B9BCBEC0C2C5C7C9CCCED1D402
:10549000D7D9DCDFE2E6E9ECF0F3F7FAFE00000032
:1054A0004FEA400C0CF1807CBCF17E4F28BF704766
:1054B000B0F1C04000F07FB990EA010F0CEAD113BF
:1054C00048BF42F48072624538BF634507D213F487
:1054D0007F0F16D080EA010000F00040704710B541
:1054E00000F023F9097EFC3E00F005B880EA0100D7
:1054F00000F00040704780EA010000F0004000F03A
:105500005AB912F47F0F04BF0248704780EA0100C5
:1055100000F051B90000C07F41000B0ED3F19E0294
:1055200008D950F400034FEA032323FA02F048BFDE
:105530004042704710B500F0F8F800BF499224804F
:10554000002070476FF0004282EA200070470000A0
:10555000C10DD1F19E0206DB4FEA002343F0004368
:1055600023FA02F07047004207D54FEA4001B1F13B
:10557000FE4F02D24FF00000704710B500F0D5F892
:1055800049922480002070476FEA20007047000095
:1055900010F0004148BF4042B0FA80F310FA03F225
:1055A000C3F19D030BD051EAC35101EB1220530606
:1055B00038BF704700F1010008BF20F001007047BC
:1055C00050EA010C00F113801CF5000F58BFBCF528
:1055D000000F01D48842704707D710F5000F58BF5D
:1055E00011F5000F15D488427047894270471CF5A9
:1055F000000F04D5BCF5000FF7D5814270474FF07E
:10560000807C1CEB400F38BF1CEB410F01D2814264
:10561000704710B500F089F8922449004FF000500F
:105620004FF08051FFF7AABE4FF47F0C1CEAD01256
:105630001EBF1CEAD11392EA0C0F93EA0C0F00F084
:10564000478090EA010F48BF42F480724FF0004C4F
:105650004CEA00204CEA012102EB0302A0FB0113FB
:10566000A2F50002002918BF43F001035B0028BF28
:105670004FEA330342EB22425FEA132C4CEBC25059
:105680002EBFBCEB436FB2F57C0F70474FEA036C43
:10569000BCF1004F08BF20F00100B2F57C0F38BF0D
:1056A00070470BD582F0FF0212F5803FC8BF7047EC
:1056B00000F1C040D8BF00F00040704700F5000C7A
:1056C0005FEA4C0C48BF7047B0F1C04000F073B8BF
:1056D00090EA010F0CEAD11348BF42F48072624590
:1056E00038BF634504D280EA010000F000407047F3
:1056F00010B500F01AF800BF8900013E00F007B8AD
:1057000000F009B85FEA410C5FEA1C6C08D080EA3F
:10571000010000F050B85FEA400C5FEA1C6CF6D163
:105720004FF00040A0F5800070470EF1020E2EF001
:10573000030E5EF8044B244204D44FEA4102B2F156
:105740007F4F11D84FEA4003B3F17F4F0CD80ED1F1
:105750004FEAD07CB2F17F4F0CEB4C0C0CF1020CF9
:1057600008BF4CEBD17C04E04FF0080C01E04FEA9D
:10577000D17C0CEB4C0324FA03F404F00704B4F1DD
:10578000040C06D20EEB840CBDE810404CF0010C6A
:105790006047DFE80CF0070802024FF00040A0F578
:1057A000800010BD0846420018BFD2F1807288BF49
:1057B00000F0004010BDFF2141EAD050C005704705
:1057C00051EA000C00F113801CF5000F58BFBCF526
:1057D000000F01D48142704707D711F5000F58BF61
:1057E00010F5000F15D481427047894270471CF5AF
:1057F000000F04D5BCF5000FF7D5884270474FF075
:10580000807C1CEB410F38BF1CEB400F01D288425B
:10581000704780EA010081EA000180EA0100FFF799
:10582000F8BE000090EA010F48BF81F000413FF54B
:105830004AAD421A04D882F00042A0EB02001144A3
:105840004FEAD0524FF07F4C1CEA410FA2EBD153EC
:1058500018BF9CEA026F4AD04FF0004C4CEA00207F
:105860004CEA012121FA03FCB0EB0C0C0FD412F02E
:10587000FE0F36D05FEA4C001DD5001240EBC2503F
:1058800038BF70471CF03F0F18BF70470BE0A2F104
:1058900001025FEA1C2040EBC25038BF70471CF089
:1058A0007F0F18BF7047C3F12003994014BF401EFB
:1058B00020F00100704780084FEA122308BF7047AC
:1058C000B0FA80FCA2EB0C02CCF1280C60FA0CF0D0
:1058D00093EA122F04BF00EBC25070474FEAC37027
:1058E0007047130A5FEADC1008BF7047F6E79CEACE
:1058F000026F04D010EA5C0F08BF0020704710B59B
:10590000FFF713FF40DFF63E81F000407047FAF7E3
:10591000EBBE010202030405060708090A0B0C0D81
:105920000E0F101000000000000000000102030430
:1059300006070809000000000102030402400000FD
:10594000000000A00000000005400000000000C8AA
:10595000000000000C4000000000409C000000001F
:10596000194000000020BCBE0000000034400000D0
:10597000BFC91B8E00000004B5400000504BCFD0C3
:105980006607E2CF010000006C4100003E8251AA90
:10599000DFEEA73401000000D9420000DCB5A0E230
:1059A0003A301F97FFFFFFFFB4450000FD25A0C858
:1059B000E9A3C14FFFFFFFFFFF3F00000000008091
:1059C00000000000FF3F0000000000800000000019
:1059D0000C5A0008000000208C0100006C01000837
:1059E000A85A00088C010020940B0000C801000890
:1059F0001C00000043000000F8FFFFFF0C00000047
:105A00000E0000000F0000002E0000004132018255
:105A100010031124F41E36FCFFFF7B041ACF044050
:105A200009A9FDFFFF15FEFFFF32FC1A673D1AF1C1
:105A300004238402232F031A52201AD8041A5A244A
:105A40001ADC044B61FF2C1A31241A82041AD40484
:105A50001A332C1ABB0429581A76041AC6041A24BD
:105A6000341AB4044132F21A85281A19241AAE04E1
:105A70001A3E581A251C1AAF041A32541AB5045A81
:105A800031581A2B281A7A041AD5041A532C1AF0F2
:105A900004C129DC2913194311720432063207327A
:085AA00008320902870A000028
:0400000508000131BD
:00000001FF
